:020000040000FA
:04000000C1EF04F058
:1009000000550000000E0E01976F220E966F000E2C
:10091000976F220E966F99859A87899C0F011C9D6F
:100920000B0E0E01F86F99998A820F012193170E11
:100930000E01886F998B988F1200AFEC04F082EC57
:1009400004F0010E0E01956FC8ADA9EF04F0ABEFF6
:1009500004F0A4EF04F0A1EF04F000EF00F00E01AA
:10096000D951F00B0309D96FD3518F0B6009D36FA5
:10097000D4518F0B6009D46FF00ED317F00ED4173B
:100980001200016A000EF86E090EF76E00019DEF6D
:0209900004F071
:020000040020DA
:10000000FFFFFFFFFFFFFFFFFFFFFFFFFFFFFFFF00
:10001000FFFFFFFFFFFFFFFFFFFFFFFFFFFFFFFFF0
:10002000FFFFFFFFFFFFFFFFFFFFFFFFFFFFFFFFE0
:10003000FFFFFFFFFFFFFFFFFFFFFFFFFFFFFFFFD0
:10004000FFFFFFFFFFFFFFFFFFFFFFFFFFFFFFFFC0
:10005000FFFFFFFFFFFFFFFFFFFFFFFFFFFFFFFFB0
:10006000FFFFFFFFFFFFFFFFFFFFFFFFFFFFFFFFA0
:10007000FFFFFFFFFFFFFFFFFFFFFFFFFFFFFFFF90
:10008000FFFFFFFFFFFFFFFFFFFFFFFFFFFFFFFF80
:10009000FFFFFFFFFFFFFFFFFFFFFFFFFFFFFFFF70
:1000A000FFFFFFFFFFFFFFFFFFFFFFFFFFFFFFFF60
:1000B000FFFFFFFFFFFFFFFFFFFFFFFFFFFFFFFF50
:1000C000FFFFFFFFFFFFFFFFFFFFFFFFFFFFFFFF40
:1000D000FFFFFFFFFFFFFFFFFFFFFFFFFFFFFFFF30
:1000E000FFFFFFFFFFFFFFFFFFFFFFFFFFFFFFFF20
:1000F000FFFFFFFFFFFFFFFFFFFFFFFFFFFFFFFF10
:020000040030CA
:0C000000FAFFFFFF9FFFFFFFFFFFFFFF65
:00000001FF
