:020000040000FA
:0400000096EF3FF048
:107F2C000001B0EF3FF0000E0E01976F190E966F27
:107F3C0099859A978A900F0121910B0E0E01FA6F79
:107F4C0099998A820F012193190E0E01886F998BD2
:107F5C00988F120099EC3FF0878088900F010C915C
:107F6C00149182908380000E026E000E016EC1EFA0
:107F7C003FF0014A022A02BECDEF3FF0300E015C09
:107F8C00750E0258D8A0CDEF3FF0CFEF3FF0BFEF0A
:107F9C003FF0839082A0D5EF3FF0D7EF3FF0D0EFCA
:107FAC003FF0010E0E01956F8380DEEF3FF0838072
:107FBC0082B0E3EF3FF0E5EF3FF0DDEF3FF0000E76
:107FCC00026E000E016EEDEF3FF0014A022A02BE76
:107FDC00F9EF3FF0B80E015C0B0E0258D8A0F9EF88
:107FEC003FF0FBEF3FF0EBEF3FF08390D0EF3FF033
:047FFC0000EF00F0A2
:020000040020DA
:10000000FFFFFFFFFFFFFFFFFFFFFFFFFFFFFFFF00
:10001000FFFFFFFFFFFFFFFFFFFFFFFFFFFFFFFFF0
:10002000FFFFFFFFFFFFFFFFFFFFFFFFFFFFFFFFE0
:10003000FFFFFFFFFFFFFFFFFFFFFFFFFFFFFFFFD0
:10004000FFFFFFFFFFFFFFFFFFFFFFFFFFFFFFFFC0
:10005000FFFFFFFFFFFFFFFFFFFFFFFFFFFFFFFFB0
:10006000FFFFFFFFFFFFFFFFFFFFFFFFFFFFFFFFA0
:10007000FFFFFFFFFFFFFFFFFFFFFFFFFFFFFFFF90
:10008000FFFFFFFFFFFFFFFFFFFFFFFFFFFFFFFF80
:10009000FFFFFFFFFFFFFFFFFFFFFFFFFFFFFFFF70
:1000A000FFFFFFFFFFFFFFFFFFFFFFFFFFFFFFFF60
:1000B000FFFFFFFFFFFFFFFFFFFFFFFFFFFFFFFF50
:1000C000FFFFFFFFFFFFFFFFFFFFFFFFFFFFFFFF40
:1000D000FFFFFFFFFFFFFFFFFFFFFFFFFFFFFFFF30
:1000E000FFFFFFFFFFFFFFFFFFFFFFFFFFFFFFFF20
:1000F000FFFFFFFFFFFFFFFFFFFFFFFFFFFFFFFF10
:020000040030CA
:0C000000FFFEFFFFFFFFFFFFFFFFFFFF01
:00000001FF
